{
  "_format": "hh-sol-artifact-1",
  "contractName": "MyEpicNFT",
  "sourceName": "contracts/MyEpicNft.sol",
  "abi": [
    {
      "inputs": [],
      "stateMutability": "nonpayable",
      "type": "constructor"
    },
    {
      "anonymous": false,
      "inputs": [
        {
          "indexed": true,
          "internalType": "address",
          "name": "owner",
          "type": "address"
        },
        {
          "indexed": true,
          "internalType": "address",
          "name": "approved",
          "type": "address"
        },
        {
          "indexed": true,
          "internalType": "uint256",
          "name": "tokenId",
          "type": "uint256"
        }
      ],
      "name": "Approval",
      "type": "event"
    },
    {
      "anonymous": false,
      "inputs": [
        {
          "indexed": true,
          "internalType": "address",
          "name": "owner",
          "type": "address"
        },
        {
          "indexed": true,
          "internalType": "address",
          "name": "operator",
          "type": "address"
        },
        {
          "indexed": false,
          "internalType": "bool",
          "name": "approved",
          "type": "bool"
        }
      ],
      "name": "ApprovalForAll",
      "type": "event"
    },
    {
      "anonymous": false,
      "inputs": [
        {
          "indexed": false,
          "internalType": "address",
          "name": "sender",
          "type": "address"
        },
        {
          "indexed": false,
          "internalType": "uint256",
          "name": "tokenId",
          "type": "uint256"
        }
      ],
      "name": "NewEpicNFTMinted",
      "type": "event"
    },
    {
      "anonymous": false,
      "inputs": [
        {
          "indexed": true,
          "internalType": "address",
          "name": "from",
          "type": "address"
        },
        {
          "indexed": true,
          "internalType": "address",
          "name": "to",
          "type": "address"
        },
        {
          "indexed": true,
          "internalType": "uint256",
          "name": "tokenId",
          "type": "uint256"
        }
      ],
      "name": "Transfer",
      "type": "event"
    },
    {
      "inputs": [
        {
          "internalType": "address",
          "name": "to",
          "type": "address"
        },
        {
          "internalType": "uint256",
          "name": "tokenId",
          "type": "uint256"
        }
      ],
      "name": "approve",
      "outputs": [],
      "stateMutability": "nonpayable",
      "type": "function"
    },
    {
      "inputs": [
        {
          "internalType": "address",
          "name": "owner",
          "type": "address"
        }
      ],
      "name": "balanceOf",
      "outputs": [
        {
          "internalType": "uint256",
          "name": "",
          "type": "uint256"
        }
      ],
      "stateMutability": "view",
      "type": "function"
    },
    {
      "inputs": [
        {
          "internalType": "uint256",
          "name": "tokenId",
          "type": "uint256"
        }
      ],
      "name": "getApproved",
      "outputs": [
        {
          "internalType": "address",
          "name": "",
          "type": "address"
        }
      ],
      "stateMutability": "view",
      "type": "function"
    },
    {
      "inputs": [],
      "name": "getTotalNFTsMintedSoFar",
      "outputs": [
        {
          "internalType": "uint256",
          "name": "",
          "type": "uint256"
        }
      ],
      "stateMutability": "view",
      "type": "function"
    },
    {
      "inputs": [
        {
          "internalType": "address",
          "name": "owner",
          "type": "address"
        },
        {
          "internalType": "address",
          "name": "operator",
          "type": "address"
        }
      ],
      "name": "isApprovedForAll",
      "outputs": [
        {
          "internalType": "bool",
          "name": "",
          "type": "bool"
        }
      ],
      "stateMutability": "view",
      "type": "function"
    },
    {
      "inputs": [],
      "name": "makeAnEpicNFT",
      "outputs": [],
      "stateMutability": "nonpayable",
      "type": "function"
    },
    {
      "inputs": [],
      "name": "name",
      "outputs": [
        {
          "internalType": "string",
          "name": "",
          "type": "string"
        }
      ],
      "stateMutability": "view",
      "type": "function"
    },
    {
      "inputs": [
        {
          "internalType": "uint256",
          "name": "tokenId",
          "type": "uint256"
        }
      ],
      "name": "ownerOf",
      "outputs": [
        {
          "internalType": "address",
          "name": "",
          "type": "address"
        }
      ],
      "stateMutability": "view",
      "type": "function"
    },
    {
      "inputs": [
        {
          "internalType": "uint256",
          "name": "tokenId",
          "type": "uint256"
        }
      ],
      "name": "pickRandomFirstWord",
      "outputs": [
        {
          "internalType": "string",
          "name": "",
          "type": "string"
        }
      ],
      "stateMutability": "view",
      "type": "function"
    },
    {
      "inputs": [
        {
          "internalType": "uint256",
          "name": "tokenId",
          "type": "uint256"
        }
      ],
      "name": "pickRandomSecondWord",
      "outputs": [
        {
          "internalType": "string",
          "name": "",
          "type": "string"
        }
      ],
      "stateMutability": "view",
      "type": "function"
    },
    {
      "inputs": [
        {
          "internalType": "uint256",
          "name": "tokenId",
          "type": "uint256"
        }
      ],
      "name": "pickRandomThirdWord",
      "outputs": [
        {
          "internalType": "string",
          "name": "",
          "type": "string"
        }
      ],
      "stateMutability": "view",
      "type": "function"
    },
    {
      "inputs": [
        {
          "internalType": "address",
          "name": "from",
          "type": "address"
        },
        {
          "internalType": "address",
          "name": "to",
          "type": "address"
        },
        {
          "internalType": "uint256",
          "name": "tokenId",
          "type": "uint256"
        }
      ],
      "name": "safeTransferFrom",
      "outputs": [],
      "stateMutability": "nonpayable",
      "type": "function"
    },
    {
      "inputs": [
        {
          "internalType": "address",
          "name": "from",
          "type": "address"
        },
        {
          "internalType": "address",
          "name": "to",
          "type": "address"
        },
        {
          "internalType": "uint256",
          "name": "tokenId",
          "type": "uint256"
        },
        {
          "internalType": "bytes",
          "name": "_data",
          "type": "bytes"
        }
      ],
      "name": "safeTransferFrom",
      "outputs": [],
      "stateMutability": "nonpayable",
      "type": "function"
    },
    {
      "inputs": [
        {
          "internalType": "address",
          "name": "operator",
          "type": "address"
        },
        {
          "internalType": "bool",
          "name": "approved",
          "type": "bool"
        }
      ],
      "name": "setApprovalForAll",
      "outputs": [],
      "stateMutability": "nonpayable",
      "type": "function"
    },
    {
      "inputs": [
        {
          "internalType": "bytes4",
          "name": "interfaceId",
          "type": "bytes4"
        }
      ],
      "name": "supportsInterface",
      "outputs": [
        {
          "internalType": "bool",
          "name": "",
          "type": "bool"
        }
      ],
      "stateMutability": "view",
      "type": "function"
    },
    {
      "inputs": [],
      "name": "symbol",
      "outputs": [
        {
          "internalType": "string",
          "name": "",
          "type": "string"
        }
      ],
      "stateMutability": "view",
      "type": "function"
    },
    {
      "inputs": [
        {
          "internalType": "uint256",
          "name": "tokenId",
          "type": "uint256"
        }
      ],
      "name": "tokenURI",
      "outputs": [
        {
          "internalType": "string",
          "name": "",
          "type": "string"
        }
      ],
      "stateMutability": "view",
      "type": "function"
    },
    {
      "inputs": [
        {
          "internalType": "address",
          "name": "from",
          "type": "address"
        },
        {
          "internalType": "address",
          "name": "to",
          "type": "address"
        },
        {
          "internalType": "uint256",
          "name": "tokenId",
          "type": "uint256"
        }
      ],
      "name": "transferFrom",
      "outputs": [],
      "stateMutability": "nonpayable",
      "type": "function"
    }
  ],
  "bytecode": "0x6080604052604051806101800160405280610142815260200162004159610142913960089080519060200190620000389291906200059c565b506040518060600160405280602281526020016200429b60229139600990805190602001906200006a9291906200059c565b506040518060400160405280601581526020017f3c2f747370616e3e3c2f746578743e3c2f7376673e0000000000000000000000815250600a9080519060200190620000b89291906200059c565b5060405180608001604052806040518060400160405280600781526020017f4d6f6e737465720000000000000000000000000000000000000000000000000081525081526020016040518060400160405280600681526020017f416e696d616c000000000000000000000000000000000000000000000000000081525081526020016040518060400160405280600981526020017f416d7068696269616e000000000000000000000000000000000000000000000081525081526020016040518060400160405280600581526020017f48556d616e000000000000000000000000000000000000000000000000000000815250815250600b906004620001c09291906200062d565b5060405180608001604052806040518060400160405280600a81526020017f5375706572536f756e640000000000000000000000000000000000000000000081525081526020016040518060400160405280600381526020017f466c79000000000000000000000000000000000000000000000000000000000081525081526020016040518060400160405280600981526020017f46697265506f776572000000000000000000000000000000000000000000000081525081526020016040518060400160405280600a81526020017f506f77657250756e636800000000000000000000000000000000000000000000815250815250600c906004620002c89291906200062d565b5060405180608001604052806040518060400160405280600681526020017f426967486174000000000000000000000000000000000000000000000000000081525081526020016040518060400160405280600a81526020017f4261636b5468726f62650000000000000000000000000000000000000000000081525081526020016040518060400160405280600681526020017f41726d6f7572000000000000000000000000000000000000000000000000000081525081526020016040518060400160405280600881526020017f42696753686f6573000000000000000000000000000000000000000000000000815250815250600d906004620003d09291906200062d565b50348015620003de57600080fd5b506040518060400160405280600d81526020017f5375706572506f7765724e4654000000000000000000000000000000000000008152506040518060400160405280601081526020017f5355504552504f5745524255434b4554000000000000000000000000000000008152508160009080519060200190620004639291906200059c565b5080600190805190602001906200047c9291906200059c565b505050620004ca6040518060400160405280601e81526020017f54686973206973206d79204e465420636f6e74726163742e20576f6168210000815250620004d060201b620012351760201c565b6200084e565b6200057081604051602401620004e7919062000762565b6040516020818303038152906040527f41304fac000000000000000000000000000000000000000000000000000000007bffffffffffffffffffffffffffffffffffffffffffffffffffffffff19166020820180517bffffffffffffffffffffffffffffffffffffffffffffffffffffffff83818316178352505050506200057360201b60201c565b50565b60008151905060006a636f6e736f6c652e6c6f679050602083016000808483855afa5050505050565b828054620005aa90620007d8565b90600052602060002090601f016020900481019282620005ce57600085556200061a565b82601f10620005e957805160ff19168380011785556200061a565b828001600101855582156200061a579182015b8281111562000619578251825591602001919060010190620005fc565b5b50905062000629919062000694565b5090565b82805482825590600052602060002090810192821562000681579160200282015b82811115620006805782518290805190602001906200066f9291906200059c565b50916020019190600101906200064e565b5b509050620006909190620006b3565b5090565b5b80821115620006af57600081600090555060010162000695565b5090565b5b80821115620006d75760008181620006cd9190620006db565b50600101620006b4565b5090565b508054620006e990620007d8565b6000825580601f10620006fd57506200071e565b601f0160209004906000526020600020908101906200071d919062000694565b5b50565b60006200072e8262000786565b6200073a818562000791565b93506200074c818560208601620007a2565b62000757816200083d565b840191505092915050565b600060208201905081810360008301526200077e818462000721565b905092915050565b600081519050919050565b600082825260208201905092915050565b60005b83811015620007c2578082015181840152602081019050620007a5565b83811115620007d2576000848401525b50505050565b60006002820490506001821680620007f157607f821691505b602082108114156200080857620008076200080e565b5b50919050565b7f4e487b7100000000000000000000000000000000000000000000000000000000600052602260045260246000fd5b6000601f19601f8301169050919050565b6138fb806200085e6000396000f3fe608060405234801561001057600080fd5b50600436106101165760003560e01c806370a08231116100a2578063b88d4fde11610071578063b88d4fde14610305578063c575757a14610321578063c87b56dd14610351578063de9d132f14610381578063e985e9c51461038b57610116565b806370a082311461026b57806395d89b411461029b578063a22cb465146102b9578063b187301f146102d557610116565b8063095ea7b3116100e9578063095ea7b3146101b757806323b872dd146101d35780632de38d68146101ef57806342842e0e1461021f5780636352211e1461023b57610116565b806301ffc9a71461011b578063060475901461014b57806306fdde0314610169578063081812fc14610187575b600080fd5b610135600480360381019061013091906124c8565b6103bb565b6040516101429190613151565b60405180910390f35b61015361049d565b60405161016091906133ec565b60405180910390f35b6101716104ae565b60405161017e919061316c565b60405180910390f35b6101a1600480360381019061019c919061251a565b610540565b6040516101ae91906130c1565b60405180910390f35b6101d160048036038101906101cc919061248c565b6105c5565b005b6101ed60048036038101906101e89190612386565b6106dd565b005b6102096004803603810190610204919061251a565b61073d565b604051610216919061316c565b60405180910390f35b61023960048036038101906102349190612386565b61085b565b005b6102556004803603810190610250919061251a565b61087b565b60405161026291906130c1565b60405180910390f35b61028560048036038101906102809190612321565b61092d565b60405161029291906133ec565b60405180910390f35b6102a36109e5565b6040516102b0919061316c565b60405180910390f35b6102d360048036038101906102ce9190612450565b610a77565b005b6102ef60048036038101906102ea919061251a565b610bf8565b6040516102fc919061316c565b60405180910390f35b61031f600480360381019061031a91906123d5565b610d16565b005b61033b6004803603810190610336919061251a565b610d78565b604051610348919061316c565b60405180910390f35b61036b6004803603810190610366919061251a565b610e96565b604051610378919061316c565b60405180910390f35b610389610fe8565b005b6103a560048036038101906103a0919061234a565b6111a1565b6040516103b29190613151565b60405180910390f35b60007f80ac58cd000000000000000000000000000000000000000000000000000000007bffffffffffffffffffffffffffffffffffffffffffffffffffffffff1916827bffffffffffffffffffffffffffffffffffffffffffffffffffffffff1916148061048657507f5b5e139f000000000000000000000000000000000000000000000000000000007bffffffffffffffffffffffffffffffffffffffffffffffffffffffff1916827bffffffffffffffffffffffffffffffffffffffffffffffffffffffff1916145b806104965750610495826112ce565b5b9050919050565b60006104a96007611338565b905090565b6060600080546104bd9061368b565b80601f01602080910402602001604051908101604052809291908181526020018280546104e99061368b565b80156105365780601f1061050b57610100808354040283529160200191610536565b820191906000526020600020905b81548152906001019060200180831161051957829003601f168201915b5050505050905090565b600061054b82611346565b61058a576040517f08c379a00000000000000000000000000000000000000000000000000000000081526004016105819061332c565b60405180910390fd5b6004600083815260200190815260200160002060009054906101000a900473ffffffffffffffffffffffffffffffffffffffff169050919050565b60006105d08261087b565b90508073ffffffffffffffffffffffffffffffffffffffff168373ffffffffffffffffffffffffffffffffffffffff161415610641576040517f08c379a0000000000000000000000000000000000000000000000000000000008152600401610638906133ac565b60405180910390fd5b8073ffffffffffffffffffffffffffffffffffffffff166106606113b2565b73ffffffffffffffffffffffffffffffffffffffff16148061068f575061068e816106896113b2565b6111a1565b5b6106ce576040517f08c379a00000000000000000000000000000000000000000000000000000000081526004016106c59061326c565b60405180910390fd5b6106d883836113ba565b505050565b6106ee6106e86113b2565b82611473565b61072d576040517f08c379a0000000000000000000000000000000000000000000000000000000008152600401610724906133cc565b60405180910390fd5b610738838383611551565b505050565b6060600061077161074d846117ad565b60405160200161075d9190612ff4565b60405160208183030381529060405261195a565b9050600b80549050816107849190613706565b9050600b81815481106107c0577f4e487b7100000000000000000000000000000000000000000000000000000000600052603260045260246000fd5b9060005260206000200180546107d59061368b565b80601f01602080910402602001604051908101604052809291908181526020018280546108019061368b565b801561084e5780601f106108235761010080835404028352916020019161084e565b820191906000526020600020905b81548152906001019060200180831161083157829003601f168201915b5050505050915050919050565b61087683838360405180602001604052806000815250610d16565b505050565b6000806002600084815260200190815260200160002060009054906101000a900473ffffffffffffffffffffffffffffffffffffffff169050600073ffffffffffffffffffffffffffffffffffffffff168173ffffffffffffffffffffffffffffffffffffffff161415610924576040517f08c379a000000000000000000000000000000000000000000000000000000000815260040161091b906132ac565b60405180910390fd5b80915050919050565b60008073ffffffffffffffffffffffffffffffffffffffff168273ffffffffffffffffffffffffffffffffffffffff16141561099e576040517f08c379a00000000000000000000000000000000000000000000000000000000081526004016109959061328c565b60405180910390fd5b600360008373ffffffffffffffffffffffffffffffffffffffff1673ffffffffffffffffffffffffffffffffffffffff168152602001908152602001600020549050919050565b6060600180546109f49061368b565b80601f0160208091040260200160405190810160405280929190818152602001828054610a209061368b565b8015610a6d5780601f10610a4257610100808354040283529160200191610a6d565b820191906000526020600020905b815481529060010190602001808311610a5057829003601f168201915b5050505050905090565b610a7f6113b2565b73ffffffffffffffffffffffffffffffffffffffff168273ffffffffffffffffffffffffffffffffffffffff161415610aed576040517f08c379a0000000000000000000000000000000000000000000000000000000008152600401610ae49061322c565b60405180910390fd5b8060056000610afa6113b2565b73ffffffffffffffffffffffffffffffffffffffff1673ffffffffffffffffffffffffffffffffffffffff16815260200190815260200160002060008473ffffffffffffffffffffffffffffffffffffffff1673ffffffffffffffffffffffffffffffffffffffff16815260200190815260200160002060006101000a81548160ff0219169083151502179055508173ffffffffffffffffffffffffffffffffffffffff16610ba76113b2565b73ffffffffffffffffffffffffffffffffffffffff167f17307eab39ab6107e8899845ad3d59bd9653f200f220920489ca2b5937696c3183604051610bec9190613151565b60405180910390a35050565b60606000610c2c610c08846117ad565b604051602001610c189190613016565b60405160208183030381529060405261195a565b9050600c8054905081610c3f9190613706565b9050600c8181548110610c7b577f4e487b7100000000000000000000000000000000000000000000000000000000600052603260045260246000fd5b906000526020600020018054610c909061368b565b80601f0160208091040260200160405190810160405280929190818152602001828054610cbc9061368b565b8015610d095780601f10610cde57610100808354040283529160200191610d09565b820191906000526020600020905b815481529060010190602001808311610cec57829003601f168201915b5050505050915050919050565b610d27610d216113b2565b83611473565b610d66576040517f08c379a0000000000000000000000000000000000000000000000000000000008152600401610d5d906133cc565b60405180910390fd5b610d728484848461198d565b50505050565b60606000610dac610d88846117ad565b604051602001610d989190612fd2565b60405160208183030381529060405261195a565b9050600d8054905081610dbf9190613706565b9050600d8181548110610dfb577f4e487b7100000000000000000000000000000000000000000000000000000000600052603260045260246000fd5b906000526020600020018054610e109061368b565b80601f0160208091040260200160405190810160405280929190818152602001828054610e3c9061368b565b8015610e895780601f10610e5e57610100808354040283529160200191610e89565b820191906000526020600020905b815481529060010190602001808311610e6c57829003601f168201915b5050505050915050919050565b6060610ea182611346565b610ee0576040517f08c379a0000000000000000000000000000000000000000000000000000000008152600401610ed79061330c565b60405180910390fd5b6000600660008481526020019081526020016000208054610f009061368b565b80601f0160208091040260200160405190810160405280929190818152602001828054610f2c9061368b565b8015610f795780601f10610f4e57610100808354040283529160200191610f79565b820191906000526020600020905b815481529060010190602001808311610f5c57829003601f168201915b505050505090506000610f8a6119e9565b9050600081511415610fa0578192505050610fe3565b600082511115610fd5578082604051602001610fbd929190612f49565b60405160208183030381529060405292505050610fe3565b610fde84611a00565b925050505b919050565b6032610ff46007611338565b10611034576040517f08c379a000000000000000000000000000000000000000000000000000000000815260040161102b9061334c565b60405180910390fd5b60006110406007611338565b9050600061104d8261073d565b9050600061105a83610bf8565b9050600061106784610d78565b90506000600884600985600986600a60405160200161108c9796959493929190612f6d565b604051602081830303815290604052905060006110f86110ab876117ad565b6040516020016110bb9190613038565b6040516020818303038152906040526110d384611aa7565b6040516020016110e492919061305a565b604051602081830303815290604052611aa7565b905060008160405160200161110d919061309f565b60405160208183030381529060405290506111283388611c65565b6111328782611c83565b61113c6007611cf7565b61115f604051806060016040528060258152602001613861602591398833611d0d565b7febb98688741ffa4c7589bf325de30cf7becb63de567842e1ccdb6cb949fdc82c3388604051611190929190613128565b60405180910390a150505050505050565b6000600560008473ffffffffffffffffffffffffffffffffffffffff1673ffffffffffffffffffffffffffffffffffffffff16815260200190815260200160002060008373ffffffffffffffffffffffffffffffffffffffff1673ffffffffffffffffffffffffffffffffffffffff16815260200190815260200160002060009054906101000a900460ff16905092915050565b6112cb81604051602401611249919061316c565b6040516020818303038152906040527f41304fac000000000000000000000000000000000000000000000000000000007bffffffffffffffffffffffffffffffffffffffffffffffffffffffff19166020820180517bffffffffffffffffffffffffffffffffffffffffffffffffffffffff8381831617835250505050611dac565b50565b60007f01ffc9a7000000000000000000000000000000000000000000000000000000007bffffffffffffffffffffffffffffffffffffffffffffffffffffffff1916827bffffffffffffffffffffffffffffffffffffffffffffffffffffffff1916149050919050565b600081600001549050919050565b60008073ffffffffffffffffffffffffffffffffffffffff166002600084815260200190815260200160002060009054906101000a900473ffffffffffffffffffffffffffffffffffffffff1673ffffffffffffffffffffffffffffffffffffffff1614159050919050565b600033905090565b816004600083815260200190815260200160002060006101000a81548173ffffffffffffffffffffffffffffffffffffffff021916908373ffffffffffffffffffffffffffffffffffffffff160217905550808273ffffffffffffffffffffffffffffffffffffffff1661142d8361087b565b73ffffffffffffffffffffffffffffffffffffffff167f8c5be1e5ebec7d5bd14f71427d1e84f3dd0314c0f7b2291e5b200ac8c7c3b92560405160405180910390a45050565b600061147e82611346565b6114bd576040517f08c379a00000000000000000000000000000000000000000000000000000000081526004016114b49061324c565b60405180910390fd5b60006114c88361087b565b90508073ffffffffffffffffffffffffffffffffffffffff168473ffffffffffffffffffffffffffffffffffffffff16148061153757508373ffffffffffffffffffffffffffffffffffffffff1661151f84610540565b73ffffffffffffffffffffffffffffffffffffffff16145b80611548575061154781856111a1565b5b91505092915050565b8273ffffffffffffffffffffffffffffffffffffffff166115718261087b565b73ffffffffffffffffffffffffffffffffffffffff16146115c7576040517f08c379a00000000000000000000000000000000000000000000000000000000081526004016115be9061336c565b60405180910390fd5b600073ffffffffffffffffffffffffffffffffffffffff168273ffffffffffffffffffffffffffffffffffffffff161415611637576040517f08c379a000000000000000000000000000000000000000000000000000000000815260040161162e9061320c565b60405180910390fd5b611642838383611dd5565b61164d6000826113ba565b6001600360008573ffffffffffffffffffffffffffffffffffffffff1673ffffffffffffffffffffffffffffffffffffffff168152602001908152602001600020600082825461169d91906135a1565b925050819055506001600360008473ffffffffffffffffffffffffffffffffffffffff1673ffffffffffffffffffffffffffffffffffffffff16815260200190815260200160002060008282546116f491906134c0565b92505081905550816002600083815260200190815260200160002060006101000a81548173ffffffffffffffffffffffffffffffffffffffff021916908373ffffffffffffffffffffffffffffffffffffffff160217905550808273ffffffffffffffffffffffffffffffffffffffff168473ffffffffffffffffffffffffffffffffffffffff167fddf252ad1be2c89b69c2b068fc378daa952ba7f163c4a11628f55a4df523b3ef60405160405180910390a4505050565b606060008214156117f5576040518060400160405280600181526020017f30000000000000000000000000000000000000000000000000000000000000008152509050611955565b600082905060005b60008214611827578080611810906136bd565b915050600a826118209190613516565b91506117fd565b60008167ffffffffffffffff811115611869577f4e487b7100000000000000000000000000000000000000000000000000000000600052604160045260246000fd5b6040519080825280601f01601f19166020018201604052801561189b5781602001600182028036833780820191505090505b5090505b6000851461194e576001826118b491906135a1565b9150600a856118c39190613706565b60306118cf91906134c0565b60f81b81838151811061190b577f4e487b7100000000000000000000000000000000000000000000000000000000600052603260045260246000fd5b60200101907effffffffffffffffffffffffffffffffffffffffffffffffffffffffffffff1916908160001a905350600a856119479190613516565b945061189f565b8093505050505b919050565b60008160405160200161196d9190612f32565b6040516020818303038152906040528051906020012060001c9050919050565b611998848484611551565b6119a484848484611dda565b6119e3576040517f08c379a00000000000000000000000000000000000000000000000000000000081526004016119da906131cc565b60405180910390fd5b50505050565b606060405180602001604052806000815250905090565b6060611a0b82611346565b611a4a576040517f08c379a0000000000000000000000000000000000000000000000000000000008152600401611a419061338c565b60405180910390fd5b6000611a546119e9565b90506000815111611a745760405180602001604052806000815250611a9f565b80611a7e846117ad565b604051602001611a8f929190612f49565b6040516020818303038152906040525b915050919050565b60606000825190506000811415611ad05760405180602001604052806000815250915050611c60565b60006003600283611ae191906134c0565b611aeb9190613516565b6004611af79190613547565b90506000602082611b0891906134c0565b67ffffffffffffffff811115611b47577f4e487b7100000000000000000000000000000000000000000000000000000000600052604160045260246000fd5b6040519080825280601f01601f191660200182016040528015611b795781602001600182028036833780820191505090505b5090506000604051806060016040528060408152602001613886604091399050600181016020830160005b86811015611c1d5760038101905062ffffff818a015116603f8160121c168401518060081b905060ff603f83600c1c1686015116810190508060081b905060ff603f8360061c1686015116810190508060081b905060ff603f831686015116810190508060e01b90508084526004840193505050611ba4565b506003860660018114611c375760028114611c4757611c52565b613d3d60f01b6002830352611c52565b603d60f81b60018303525b508484525050819450505050505b919050565b611c7f828260405180602001604052806000815250611f71565b5050565b611c8c82611346565b611ccb576040517f08c379a0000000000000000000000000000000000000000000000000000000008152600401611cc2906132cc565b60405180910390fd5b80600660008481526020019081526020016000209080519060200190611cf29291906121ad565b505050565b6001816000016000828254019250508190555050565b611da7838383604051602401611d259392919061318e565b6040516020818303038152906040527fe3849f79000000000000000000000000000000000000000000000000000000007bffffffffffffffffffffffffffffffffffffffffffffffffffffffff19166020820180517bffffffffffffffffffffffffffffffffffffffffffffffffffffffff8381831617835250505050611dac565b505050565b60008151905060006a636f6e736f6c652e6c6f679050602083016000808483855afa5050505050565b505050565b6000611dfb8473ffffffffffffffffffffffffffffffffffffffff16611fcc565b15611f64578373ffffffffffffffffffffffffffffffffffffffff1663150b7a02611e246113b2565b8786866040518563ffffffff1660e01b8152600401611e4694939291906130dc565b602060405180830381600087803b158015611e6057600080fd5b505af1925050508015611e9157506040513d601f19601f82011682018060405250810190611e8e91906124f1565b60015b611f14573d8060008114611ec1576040519150601f19603f3d011682016040523d82523d6000602084013e611ec6565b606091505b50600081511415611f0c576040517f08c379a0000000000000000000000000000000000000000000000000000000008152600401611f03906131cc565b60405180910390fd5b805181602001fd5b63150b7a0260e01b7bffffffffffffffffffffffffffffffffffffffffffffffffffffffff1916817bffffffffffffffffffffffffffffffffffffffffffffffffffffffff191614915050611f69565b600190505b949350505050565b611f7b8383611fdf565b611f886000848484611dda565b611fc7576040517f08c379a0000000000000000000000000000000000000000000000000000000008152600401611fbe906131cc565b60405180910390fd5b505050565b600080823b905060008111915050919050565b600073ffffffffffffffffffffffffffffffffffffffff168273ffffffffffffffffffffffffffffffffffffffff16141561204f576040517f08c379a0000000000000000000000000000000000000000000000000000000008152600401612046906132ec565b60405180910390fd5b61205881611346565b15612098576040517f08c379a000000000000000000000000000000000000000000000000000000000815260040161208f906131ec565b60405180910390fd5b6120a460008383611dd5565b6001600360008473ffffffffffffffffffffffffffffffffffffffff1673ffffffffffffffffffffffffffffffffffffffff16815260200190815260200160002060008282546120f491906134c0565b92505081905550816002600083815260200190815260200160002060006101000a81548173ffffffffffffffffffffffffffffffffffffffff021916908373ffffffffffffffffffffffffffffffffffffffff160217905550808273ffffffffffffffffffffffffffffffffffffffff16600073ffffffffffffffffffffffffffffffffffffffff167fddf252ad1be2c89b69c2b068fc378daa952ba7f163c4a11628f55a4df523b3ef60405160405180910390a45050565b8280546121b99061368b565b90600052602060002090601f0160209004810192826121db5760008555612222565b82601f106121f457805160ff1916838001178555612222565b82800160010185558215612222579182015b82811115612221578251825591602001919060010190612206565b5b50905061222f9190612233565b5090565b5b8082111561224c576000816000905550600101612234565b5090565b600061226361225e84613438565b613407565b90508281526020810184848401111561227b57600080fd5b612286848285613649565b509392505050565b60008135905061229d81613804565b92915050565b6000813590506122b28161381b565b92915050565b6000813590506122c781613832565b92915050565b6000815190506122dc81613832565b92915050565b600082601f8301126122f357600080fd5b8135612303848260208601612250565b91505092915050565b60008135905061231b81613849565b92915050565b60006020828403121561233357600080fd5b60006123418482850161228e565b91505092915050565b6000806040838503121561235d57600080fd5b600061236b8582860161228e565b925050602061237c8582860161228e565b9150509250929050565b60008060006060848603121561239b57600080fd5b60006123a98682870161228e565b93505060206123ba8682870161228e565b92505060406123cb8682870161230c565b9150509250925092565b600080600080608085870312156123eb57600080fd5b60006123f98782880161228e565b945050602061240a8782880161228e565b935050604061241b8782880161230c565b925050606085013567ffffffffffffffff81111561243857600080fd5b612444878288016122e2565b91505092959194509250565b6000806040838503121561246357600080fd5b60006124718582860161228e565b9250506020612482858286016122a3565b9150509250929050565b6000806040838503121561249f57600080fd5b60006124ad8582860161228e565b92505060206124be8582860161230c565b9150509250929050565b6000602082840312156124da57600080fd5b60006124e8848285016122b8565b91505092915050565b60006020828403121561250357600080fd5b6000612511848285016122cd565b91505092915050565b60006020828403121561252c57600080fd5b600061253a8482850161230c565b91505092915050565b61254c816135d5565b82525050565b61255b816135e7565b82525050565b600061256c8261347d565b6125768185613493565b9350612586818560208601613658565b61258f816137f3565b840191505092915050565b60006125a582613488565b6125af81856134a4565b93506125bf818560208601613658565b6125c8816137f3565b840191505092915050565b60006125de82613488565b6125e881856134b5565b93506125f8818560208601613658565b80840191505092915050565b600081546126118161368b565b61261b81866134b5565b9450600182166000811461263657600181146126475761267a565b60ff1983168652818601935061267a565b61265085613468565b60005b8381101561267257815481890152600182019150602081019050612653565b838801955050505b50505092915050565b60006126906007836134b5565b91507f6f75746c6f6f6b000000000000000000000000000000000000000000000000006000830152600782019050919050565b60006126d06008836134b5565b91507f63726561747572650000000000000000000000000000000000000000000000006000830152600882019050919050565b60006127106032836134a4565b91507f4552433732313a207472616e7366657220746f206e6f6e20455243373231526560008301527f63656976657220696d706c656d656e74657200000000000000000000000000006020830152604082019050919050565b6000612776601c836134a4565b91507f4552433732313a20746f6b656e20616c7265616479206d696e746564000000006000830152602082019050919050565b60006127b66005836134b5565b91507f706f7765720000000000000000000000000000000000000000000000000000006000830152600582019050919050565b60006127f66024836134a4565b91507f4552433732313a207472616e7366657220746f20746865207a65726f2061646460008301527f72657373000000000000000000000000000000000000000000000000000000006020830152604082019050919050565b600061285c6019836134a4565b91507f4552433732313a20617070726f766520746f2063616c6c6572000000000000006000830152602082019050919050565b600061289c606f836134b5565b91507f222c20226465736372697074696f6e223a20224120686967686c79206163636c60008301527f61696d656420636f6c6c656374696f6e20537570657248756d616e206162696c60208301527f69747920626f782e222c2022696d616765223a2022646174613a696d6167652f60408301527f7376672b786d6c3b6261736536342c00000000000000000000000000000000006060830152606f82019050919050565b600061294e602c836134a4565b91507f4552433732313a206f70657261746f7220717565727920666f72206e6f6e657860008301527f697374656e7420746f6b656e00000000000000000000000000000000000000006020830152604082019050919050565b60006129b46038836134a4565b91507f4552433732313a20617070726f76652063616c6c6572206973206e6f74206f7760008301527f6e6572206e6f7220617070726f76656420666f7220616c6c00000000000000006020830152604082019050919050565b6000612a1a602a836134a4565b91507f4552433732313a2062616c616e636520717565727920666f7220746865207a6560008301527f726f2061646472657373000000000000000000000000000000000000000000006020830152604082019050919050565b6000612a806029836134a4565b91507f4552433732313a206f776e657220717565727920666f72206e6f6e657869737460008301527f656e7420746f6b656e00000000000000000000000000000000000000000000006020830152604082019050919050565b6000612ae6602e836134a4565b91507f45524337323155524953746f726167653a2055524920736574206f66206e6f6e60008301527f6578697374656e7420746f6b656e0000000000000000000000000000000000006020830152604082019050919050565b6000612b4c6002836134b5565b91507f227d0000000000000000000000000000000000000000000000000000000000006000830152600282019050919050565b6000612b8c6020836134a4565b91507f4552433732313a206d696e7420746f20746865207a65726f20616464726573736000830152602082019050919050565b6000612bcc6031836134a4565b91507f45524337323155524953746f726167653a2055524920717565727920666f722060008301527f6e6f6e6578697374656e7420746f6b656e0000000000000000000000000000006020830152604082019050919050565b6000612c32600a836134b5565b91507f537570657268756d616e000000000000000000000000000000000000000000006000830152600a82019050919050565b6000612c72602c836134a4565b91507f4552433732313a20617070726f76656420717565727920666f72206e6f6e657860008301527f697374656e7420746f6b656e00000000000000000000000000000000000000006020830152604082019050919050565b6000612cd86019836134a4565b91507f4f6e6c79203530204e46542043616e206265206d696e746564000000000000006000830152602082019050919050565b6000612d186029836134a4565b91507f4552433732313a207472616e73666572206f6620746f6b656e2074686174206960008301527f73206e6f74206f776e00000000000000000000000000000000000000000000006020830152604082019050919050565b6000612d7e602f836134a4565b91507f4552433732314d657461646174613a2055524920717565727920666f72206e6f60008301527f6e6578697374656e7420746f6b656e00000000000000000000000000000000006020830152604082019050919050565b6000612de4600a836134b5565b91507f7b226e616d65223a2022000000000000000000000000000000000000000000006000830152600a82019050919050565b6000612e246021836134a4565b91507f4552433732313a20617070726f76616c20746f2063757272656e74206f776e6560008301527f72000000000000000000000000000000000000000000000000000000000000006020830152604082019050919050565b6000612e8a601d836134b5565b91507f646174613a6170706c69636174696f6e2f6a736f6e3b6261736536342c0000006000830152601d82019050919050565b6000612eca6031836134a4565b91507f4552433732313a207472616e736665722063616c6c6572206973206e6f74206f60008301527f776e6572206e6f7220617070726f7665640000000000000000000000000000006020830152604082019050919050565b612f2c8161363f565b82525050565b6000612f3e82846125d3565b915081905092915050565b6000612f5582856125d3565b9150612f6182846125d3565b91508190509392505050565b6000612f79828a612604565b9150612f8582896125d3565b9150612f918288612604565b9150612f9d82876125d3565b9150612fa98286612604565b9150612fb582856125d3565b9150612fc18284612604565b915081905098975050505050505050565b6000612fdd82612683565b9150612fe982846125d3565b915081905092915050565b6000612fff826126c3565b915061300b82846125d3565b915081905092915050565b6000613021826127a9565b915061302d82846125d3565b915081905092915050565b600061304382612c25565b915061304f82846125d3565b915081905092915050565b600061306582612dd7565b915061307182856125d3565b915061307c8261288f565b915061308882846125d3565b915061309382612b3f565b91508190509392505050565b60006130aa82612e7d565b91506130b682846125d3565b915081905092915050565b60006020820190506130d66000830184612543565b92915050565b60006080820190506130f16000830187612543565b6130fe6020830186612543565b61310b6040830185612f23565b818103606083015261311d8184612561565b905095945050505050565b600060408201905061313d6000830185612543565b61314a6020830184612f23565b9392505050565b60006020820190506131666000830184612552565b92915050565b60006020820190508181036000830152613186818461259a565b905092915050565b600060608201905081810360008301526131a8818661259a565b90506131b76020830185612f23565b6131c46040830184612543565b949350505050565b600060208201905081810360008301526131e581612703565b9050919050565b6000602082019050818103600083015261320581612769565b9050919050565b60006020820190508181036000830152613225816127e9565b9050919050565b600060208201905081810360008301526132458161284f565b9050919050565b6000602082019050818103600083015261326581612941565b9050919050565b60006020820190508181036000830152613285816129a7565b9050919050565b600060208201905081810360008301526132a581612a0d565b9050919050565b600060208201905081810360008301526132c581612a73565b9050919050565b600060208201905081810360008301526132e581612ad9565b9050919050565b6000602082019050818103600083015261330581612b7f565b9050919050565b6000602082019050818103600083015261332581612bbf565b9050919050565b6000602082019050818103600083015261334581612c65565b9050919050565b6000602082019050818103600083015261336581612ccb565b9050919050565b6000602082019050818103600083015261338581612d0b565b9050919050565b600060208201905081810360008301526133a581612d71565b9050919050565b600060208201905081810360008301526133c581612e17565b9050919050565b600060208201905081810360008301526133e581612ebd565b9050919050565b60006020820190506134016000830184612f23565b92915050565b6000604051905081810181811067ffffffffffffffff8211171561342e5761342d6137c4565b5b8060405250919050565b600067ffffffffffffffff821115613453576134526137c4565b5b601f19601f8301169050602081019050919050565b60008190508160005260206000209050919050565b600081519050919050565b600081519050919050565b600082825260208201905092915050565b600082825260208201905092915050565b600081905092915050565b60006134cb8261363f565b91506134d68361363f565b9250827fffffffffffffffffffffffffffffffffffffffffffffffffffffffffffffffff0382111561350b5761350a613737565b5b828201905092915050565b60006135218261363f565b915061352c8361363f565b92508261353c5761353b613766565b5b828204905092915050565b60006135528261363f565b915061355d8361363f565b9250817fffffffffffffffffffffffffffffffffffffffffffffffffffffffffffffffff048311821515161561359657613595613737565b5b828202905092915050565b60006135ac8261363f565b91506135b78361363f565b9250828210156135ca576135c9613737565b5b828203905092915050565b60006135e08261361f565b9050919050565b60008115159050919050565b60007fffffffff0000000000000000000000000000000000000000000000000000000082169050919050565b600073ffffffffffffffffffffffffffffffffffffffff82169050919050565b6000819050919050565b82818337600083830152505050565b60005b8381101561367657808201518184015260208101905061365b565b83811115613685576000848401525b50505050565b600060028204905060018216806136a357607f821691505b602082108114156136b7576136b6613795565b5b50919050565b60006136c88261363f565b91507fffffffffffffffffffffffffffffffffffffffffffffffffffffffffffffffff8214156136fb576136fa613737565b5b600182019050919050565b60006137118261363f565b915061371c8361363f565b92508261372c5761372b613766565b5b828206905092915050565b7f4e487b7100000000000000000000000000000000000000000000000000000000600052601160045260246000fd5b7f4e487b7100000000000000000000000000000000000000000000000000000000600052601260045260246000fd5b7f4e487b7100000000000000000000000000000000000000000000000000000000600052602260045260246000fd5b7f4e487b7100000000000000000000000000000000000000000000000000000000600052604160045260246000fd5b6000601f19601f8301169050919050565b61380d816135d5565b811461381857600080fd5b50565b613824816135e7565b811461382f57600080fd5b50565b61383b816135f3565b811461384657600080fd5b50565b6138528161363f565b811461385d57600080fd5b5056fe416e204e465420772f20494420257320686173206265656e206d696e74656420746f2025734142434445464748494a4b4c4d4e4f505152535455565758595a6162636465666768696a6b6c6d6e6f707172737475767778797a303132333435363738392b2fa2646970667358221220a63f8f5a1240179bdc63ea21248e48d7caba6f3c707def93064b67e6ee943ed464736f6c634300080000333c73766720786d6c6e733d27687474703a2f2f7777772e77332e6f72672f323030302f73766727207072657365727665417370656374526174696f3d27784d696e594d696e206d656574272076696577426f783d273020302033353020333530273e3c7374796c653e2e62617365207b2066696c6c3a2077686974653b20666f6e742d66616d696c793a2073657269663b20666f6e742d73697a653a20313470783b207d3c2f7374796c653e3c726563742077696474683d273130302527206865696768743d2731303025272066696c6c3d27626c61636b27202f3e3c746578742020793d273530252720666f6e742d73697a653d273135272064793d27302720636c6173733d27626173652720646f6d696e616e742d626173656c696e653d276d6964646c65273e3c747370616e20783d27353025272064793d272e36656d273e3c2f747370616e3e3c747370616e20783d27353025272064793d27312e32656d273e",
  "linkReferences": {},
  "deployedLinkReferences": {}
}